:10000000181E002025350000213500002135000094
:1000100000000000000000000000000000000000E0
:10002000000000000000000000000000213500007A
:100030000000000000000000213500002135000014
:100040002135000021350000213500002135000058
:10005000213500002135000021350000612F00000E
:100060002135000021350000213500002135000038
:100070002135000021350000213500002135000028
:100080002135000021350000213500002135000018
:1000900021350000000000000000000021350000B4
:1000A00021350000213500002135000021350000F8
:1000B0000000000010B5064C2378002B07D1054B3B
:1000C000002B02D0044800E000BF0123237010BDC4
:1000D000AC01002000000000703C0000084B10B58F
:1000E000002B03D00749084800E000BF0748036819
:1000F000002B00D110BD064B002BFBD09847F9E731
:1001000000000000B0010020703C0000703C0000C6
:100110000000000008210748074B82685203520F75
:10012000914019608368054A9BB213604B43044AAF
:100130001360704700400041AC080020A408002074
:10014000A0080020F0B58025134B144F5C6892087E
:10015000AC435C60124CA446002A00D1F0BD114CA7
:100160001C801C7DE407FCD500253C68A408A54242
:100170000BD34408DC6164461C801C7DE407FCD57D
:10018000AC0000190919521BE6E7AA42F1D0AC00F5
:100190000E5901350651E8E700400041AC08002047
:1001A00004A5FFFF44A5FFFF70B50C4A0C4C0D4D94
:1001B0000D4E002900DC70BDA04205D80B4B1B681A
:1001C0009B00C018C91AF4E72B689842F6D243087E
:1001D000D3611680137DDB07FCD5EFE700400041BB
:1001E000FF3F0000A008002002A5FFFFAC08002090
:1001F0007FB5184B1B78002B17D0042918D1006845
:100200006A460F253026490004AB5B180B3B541D92
:10021000A34213D130230A2201A80370483343704C
:1002200043189A700332DA70043100F069FE7FBD22
:10023000022901D10088E3E70078E1E702002A40C3
:10024000092A04D832431A700009013BE0E737322B
:10025000F9E7C046CC01002080B500AF72B6BFF30D
:100260005F8F0022064B1A70EFF30883054A136074
:10027000036883F3088843681847BD4680BDC046BD
:10028000AB010020B00A00208021F0B5C34C85B03E
:10029000200000AF890000F073FDC14BC14D186014
:1002A00000232C60C04C2360BD4B1B687B607A68C8
:1002B0002368934202D3BD4605B0F0BD2B681B787E
:1002C000FF2B35D0232B00D05DE1B84B1B78002BE2
:1002D00003D00221B64800F013FEB64B1B78532B17
:1002E00050D1AF4B1A6823689A4224D82368B24A87
:1002F000013B23602B681168013B2B60AF4B1B78DF
:100300008B4204D2C91AAE4B186800F077FD7A22EE
:10031000A84B1A700022A84B1A60A44B1B7893427A
:1003200003D00121A74800F0EBFD2B6801332B60BF
:1003300023680133B7E729680133013129609E49F9
:1003400023600968D31A8B4200D90B009E4A9E484D
:1003500013600022994B1A70994A19780668B142C5
:10036000C4D22968166809783170116801311160AA
:100370002968013129602168013121601978013132
:100380001970EAE7522B06D18B4B19688C4B186811
:1003900000F0B6FDBBE74F2B05D1894B864A1B68A1
:1003A00012681A70B3E7482B05D1854B824A1B6847
:1003B00012681A80ABE7572B05D1814B7E4A1B6828
:1003C00012681A60A3E76F2B05D101217C4B1868D6
:1003D000FFF70EFF9BE7682B06D1794B76481B6829
:1003E00002211B880360F3E7772B06D1744B724818
:1003F0001B6804211B680360EAE7472B0ED16E4B94
:100400001868FFF729FF714B1B6883F308880122E6
:100410006F4B1A70BFF35F8F62B678E7542B05D12C
:10042000624A533B137002216148B1E74E2B0BD156
:100430005E4B1B78002B03D102215D4800F060FD6C
:1004400000235A4A137062E7562B30D101216148CC
:1004500000F056FD1121604800F052FD01215F4877
:1004600000F04EFD00235E48286023602B685A1C74
:100470002A601E78002E13D1216800F041FD012171
:10048000564800F03DFD5748266028602B685A1CEE
:100490002A601B78002B06D1216800F031FDC2E7ED
:1004A00023680133E1E7236801332360EEE7424923
:1004B000582B0CD14C4B08681968091AFFF774FEC9
:1004C00003214A4800F01CFD0122494B69E7592BE2
:1004D00024D10A683A4B002A05D11A68454B1A60A4
:1004E0000321454854E74249087800280BD00020F2
:1004F000087042491E688C46414966450CD88020E8
:10050000C001861B0E6018683D4B1B68C018394B34
:100510001968FFF717FEE3E70860F4E75A2B00D0ED
:10052000F5E60026264B09681A68354B1B68D21879
:100530005118914219D10121324800F0E1FC072302
:100540000F223240110036093031092A01DD3732DD
:1005500011000822BA18D154013BF1D20821100031
:1005600000F0CEFC0321284812E71378300A4340FC
:100570001809434036025E40180346405B015E4066
:10058000B6B20132D5E719003039C8B20A4A092893
:100590003CD813681B010B431360C6E6B00800206B
:1005A000980800209C080020A8080020CC0100200A
:1005B000D43B000000000020B40A00209408002072
:1005C000D0010020D73B0000B80A0020B00A00206C
:1005D000AB010020B03B00009E3B0000B23B00009E
:1005E000B43B0000C03B0000A0080020C93B000055
:1005F00001000020D4010020CD3B0000FF3F00009F
:10060000C8010020D13B0000D33B00001900413954
:10061000052903D81168373B0901BCE71900613986
:10062000052903D81168573B0901B4E72C2B04D1E5
:10063000034B116819600023AEE702490B70FAE71B
:10064000D00100200000002043081B1810B5DAB2CA
:100650000F24094BC00708D5985C20400C012043AB
:10066000985409099B18597010BD99549B180A0099
:10067000090AA2431143F6E7BC0A002010B50400A2
:10068000022806D91348032C04D16022124903F032
:1006900075FA10BD5A30437801781B020B43013BB9
:1006A0009B009BB29C42F4D31900E031FF3189B228
:1006B0008C42EED88021E41A2034640220008900A4
:1006C000FFF772FD8022044992002000FFF73AFDF7
:1006D000DFE7C04602000020BC0A0020802270B57F
:1006E0002B4D040092000021280003F050FA032C47
:1006F00037D8200003F06AF8020F0F2F3E22254959
:10070000280003F03BFAFF2355225B00EA54224BFA
:100710009218EA5470BD002520490020FFF794FF8D
:100720001F490120FFF790FF1E4B5A335C781A785F
:10073000240214430134A4B2601E80B22100772D3C
:1007400000D1174901350134EDB2FFF77DFFA4B2A6
:10075000782DF1D1DEE760221249280003F00EFA6D
:10076000D8E7104B5A3359781A78090211430139E6
:10077000890089B28C42CDD30B00E033FF339BB2AA
:100780009C42C7D88022611A203149029200E4E7D6
:10079000BC0A0020D93B0000FF010000F80F000058
:1007A000FF0F000002000020024B1878431E984102
:1007B00040007047D8010020054B1A780223002A18
:1007C00003D1E423FF330360130018007047C046D1
:1007D000D80100200020704701207047F22370B537
:1007E0005B00984201D9012070BD0A189A42FAD8DC
:1007F000802684B209198DB2B600A54201D100202D
:10080000F2E72000FFF76AFF0023320004490120CD
:1008100000F0A6FE0134A4B20028EED1E3E7C04602
:10082000BC0A0020F22370B55B00984201D9012078
:1008300070BD0A189A42FAD8802684B209198DB27E
:10084000B600A54201D10020F2E70023320006499C
:10085000180000F085FE0028E9D020000134FFF7E1
:100860000DFFA4B2EDE7C046BC0A0020012070478E
:10087000030010B50120002B01D1FFF795FF10BD3B
:1008800010B50123002803D10800FFF795FF0300EE
:10089000180010BD03000020834201D10130484000
:1008A0007047030010B50120002B01D1FFF792FF24
:1008B00010BD030010B50120002B01D1FFF78CFF04
:1008C00010BD00000023984200D1014B1800704772
:1008D000173C000010B5012304000800002C03D1D0
:1008E0001100FFF77BFF0300180010BD10B50123B6
:1008F00004000800002C03D11100FFF793FF030050
:10090000180010BDEFF3108072B6BFF35F8F0022A6
:10091000024B1A70434258417047C046AB01002059
:10092000024A1378013BDBB213707047E7010020E5
:1009300000207047002070477047000010B5064A3D
:100940001378013BDBB213701078C0B202F038FFAD
:100950000022024B1A7010BDE8010020DC010020CB
:10096000002805D00122034B1A70BFF35F8F62B6D7
:100970007047C046AB0100206021124B1A7850B27C
:100980000A4000280DDA0020202A13D15A78212AA3
:1009900010D1DA88072A0DD10B499A81996001207C
:1009A00008E00020202A05D15A78202A03D0223AD4
:1009B000504250417047DA88072AFBD10349196138
:1009C000EAE7C046680F0020E00100203909000076
:1009D0000020A12210B50F4B0F4C207018800F4B38
:1009E0001A70813A5A701E3ADA80E1229880588053
:1009F00018810B4B52021A600822187158719A71B3
:100A000002F0D8FE002803D023780133DBB2237034
:100A100010BDC04676040020E70100200807002032
:100A2000E0010020F7B5384B1B78002B22D101F0F4
:100A300083FD364D2C8800281DD001F087FD8442AF
:100A400018D0FFF75FFF324B324A1C780700E4B240
:100A500063009B5A304E002B18D13388013333800A
:100A600001F06AFD002809D13388632B06D83800CD
:100A7000FFF776FFF7BD01F061FDE0E701F05CFDF7
:100A8000002803D0254B32889A42F0D900233380C6
:100A9000234B1B78002B2CD1634263411C4ADBB2F1
:100AA00013700123184A38001370FFF759FF194BD0
:100AB00066009B5B1F00413FFF3F7A1E9741A022CB
:100AC000FFB2520093421BD001F036FD002814D033
:100AD00001F03CFD2880A0225200544311490D4BE7
:100AE000114A9B5B121900918420390001F072FEBB
:100AF000C0E762425441E4B2D3E701F01FFDE9E7E9
:100B000000232B80E7E7C0460407002002070020EF
:100B100000070020FC060020DA0100201F0300006F
:100B200078040020350B00007C04002010B5FFF78E
:100B300079FF10BD10B500280CD1074B1B785A4225
:100B40005341064A5B009852054B1870054B1870CC
:100B5000FFF768FF10BDC04600070020FC0600201C
:100B6000780400200407002070B5FFF7CBFE064B89
:100B7000064A1D88064BADB21B785B009C5AFFF7F6
:100B8000EFFEA4B2601B70BD720400206C04002054
:100B90007004002010B5FFF7E7FF431E9841C0B274
:100BA00010BD0000F7B5FFF7ADFE1649164B0C78E7
:100BB0001D78E4B2EDB2002D06D1144E144A630044
:100BC00037889B5A9F4203D2FFF7CAFE0020FEBD22
:100BD0003580634263410126DBB20B700A4B1E7005
:100BE000FFF7BEFE2800FFF7D5FFA0235B005C43A4
:100BF000084A31001419084A05200092220001F029
:100C0000E9FDE4E770040020740400207204002071
:100C10006C040020EC0100209D0C000070B5002445
:100C2000134B144D2C701C70134B1C70134B1C7009
:100C3000134B1C805C80134B1C80FFF7F3FE124BA0
:100C40001C70124B1C70124B1C805C80114B1C8062
:100C5000FFF7A8FFA04209D02B780133DBB22B703D
:100C60002B78DBB2012B01D10B4A137070BDC0464B
:100C700004070020E801002078040020000700207D
:100C8000FC060020020700207404002070040020ED
:100C90006C04002072040020DC01002013B5030066
:100CA0001000002B10D10D4A127854426241D2B28A
:100CB00000290AD14133FF335A4309498A180949A7
:100CC0000091012101F086FD13BD074889B2520051
:100CD0001152064A1370FFF765FFF5E77004002014
:100CE000EC0100209D0C00006C0400207404002026
:100CF000F0B5140085B00191FFF704FE1B4B1C4FAB
:100D00003E881978B6B2CBB202935B000393039A84
:100D1000184BD55AADB2FFF723FEAE4206D3164BA1
:100D20001B78002BE8D1200005B0F0BD114B039AD1
:100D30002500D35A9B1B9C4200D91D00A023029979
:100D40005B0059438E190D492A008919019802F058
:100D500015FF3B88641B5B199BB23B80019B5B19B1
:100D60000193FFF71FFF002CC6D1DCE770040020C1
:100D7000720400206C040020DC010020EC01002043
:100D8000F7B50025184B01901B780C00AB4228D01A
:100D9000FFF7B8FD154B164E37881978BFB2CBB2A6
:100DA0005A000093134BD55AED1BFFF7D9FDAC4207
:100DB00000D92C00002C14D0A021009B49005943DD
:100DC0000D4BC91959182200019802F0D7FEFFF700
:100DD00099FD33881C19A4B23480FFF7C1FDFFF7D9
:100DE000E1FE2800FEBDC046DC01002070040020AA
:100DF000720400206C040020EC01002010B50A00F1
:100E000001000020FFF774FF10BD000070B5FFF770
:100E100079FD1049104A0B78DBB25C00A45AA0227D
:100E2000520094420FD10D4A1278002A0BD10C4D7A
:100E30002A78D2B2002A06D101242C705C42634188
:100E40001400DBB20B70FFF78BFDA0204000001BED
:100E500070BDC04600070020FC06002004070020EB
:100E60007804002010B5FFF7D1FF431E9841C0B2AF
:100E700010BD0000F7B51D4B9B79092B00D1520026
:100E8000140000910020FFF7EDFF002805D1184B5A
:100E90001B78002BF6D12000FEBDFFF733FD154B6C
:100EA00001901D78144BEDB26A00D75AA0235B0065
:100EB000DB1B26009C4200D91E00A0235B006B4375
:100EC0000E48DB19C0183200009902F057FE0A4B99
:100ED0006D00BF190198EF52FFF742FD009BA41B64
:100EE0009B190093002CCDD1D5E7C046E00100202E
:100EF000DC01002000070020FC0600207C0400200C
:100F000010B50A0001000020FFF7B4FF10BD00205B
:100F100070470000431E98410122034BC0B2187075
:100F2000024B1A707047C046BC0C002038010020EC
:100F300010B5054C12220021200002F028FEF023FB
:100F40002370E63BE37110BD6007002010B5FFF78A
:100F5000EFFF0022014B1A7310BDC0463C01002078
:100F60000022054B10B51A700123044A1370044A7D
:100F7000137002F019FC10BD2E070020380100206C
:100F80003901002007B5074B074A009301211F23B1
:100F9000022001F01FFC002803D10449023001F0B7
:100FA000EFFB07BD1113000038070020850F00007C
:100FB00010B5FFF7E7FF10BD70B50024124B134AC0
:100FC0001C70134B1C7001231370124A1370FFF72F
:100FD0004DFC114EA04203D130700025280070BD99
:100FE0000138307002F0DAFB051EF6D03378A342E8
:100FF00002D2FFF7C7FFF1E7200000210134FFF71D
:1010000049FCE4B2F2E7C0462E0700203801002078
:101010002C070020390100205C07002007B5074B92
:10102000074A009300210D23812001F0D3FB002803
:1010300003D10449813001F0A3FB07BDB10F0000CB
:101040003C0100201D10000070B5084C084DA3683D
:10105000002B06D02B7B81207F2B00D8022001F0B3
:1010600001FB6B686360FFF7D9FF70BD3C01002096
:101070003807002010B5064B1B78002B06D0022045
:1010800001F0F0FA0349022001F07AFB10BDC046DE
:101090002C0700207510000010B5064B1B78002BA4
:1010A00006D0812001F0DEFA0349812001F068FBBF
:1010B00010BDC0462C0700209910000010B50C0090
:1010C000002807D1FFF742FF034B9A68141B9C606E
:1010D000FFF7BAFF10BDC0463C010020602110B5EB
:1010E000174B1A7850B20A40002810DA0020202A44
:1010F0000CD15A78FE2A09D1DA88012A06D15988FA
:10110000814203D10F499A819960012010BD0020CE
:10111000202AFBD15A78FF2AF8D1DA888242F5D109
:101120005B888342F2D1084B1870084B187002306C
:1011300001F0E8F9812001F0E5F9FFF723FFE4E78A
:10114000680F00205C0700202C0700202E070020DD
:1011500070B505000C00FFF7EBFE0122064B1A7379
:101160000022064BDA701A715A719A71220A9D7028
:101170001A735C7370BDC0463C01002060070020FC
:10118000E82110B589010220FFF7E2FF10BDA02180
:1011900010B589010620FFF7DBFF10BD10B5002157
:1011A0000420FFF7D5FF10BD07B50B00064902006C
:1011B00000918120012101F00DFB002803D1FFF7F0
:1011C000EDFFFFF741FF07BDBD100000902110B5F6
:1011D00089010520FFF7BCFF10BD000010B5094BC9
:1011E0001B7B594049B2002904DB074B9A68012355
:1011F000824204D2FFF7EAFFFFF726FF0023180020
:1012000010BDC046380700203C010020F7B5214D35
:10121000070014220021280002F0B9FC1E4E002F06
:1012200030D02B000824F17D08333F20727C02402F
:101230001C2A01D0824207D11C221A70123A5A701D
:101240000C34053ADA70E4B2231C8C4200D90B1C32
:10125000DBB2802118000193FFF7C0FF002810D0F7
:10126000707BFFF71EFB431E9841C001002F0DD07D
:10127000023CA4B224022C80E87001992800FFF7F8
:1012800093FFF7BDF17C2B1D0424CEE7013C2C70AD
:10129000A870F2E7140700203807002070B5051E7B
:1012A000164C0CD1607BFFF7FCFA002807D09C217C
:1012B00007208901FFF74CFFFFF7C6FE70BD29002C
:1012C000627C0F4BDA70A27C9A70E27C5A70227DAD
:1012D0001A70A27D0B4B5A70E27D1A7018884B1E53
:1012E00099414002C901FFF779FF0028E6D00122A9
:1012F000054B1D70054B1A70E0E7C046380700200B
:1013000028070020580700202D0700202E07002066
:10131000F8B500280DD11F2904D1674C674B22680E
:101320009A4207D00122664B1A70FFF7A3FEFFF71F
:10133000B3FEF8BD0F23627B1A40624B62731B78C9
:10134000934202D2FFF742FF8CE05F4BA1689960A5
:10135000E37B1E2B00D1A9E019D8122B3BD009D872
:10136000002B71D0032B25D0802105208901FFF7A8
:10137000EFFE77E01A2B1AD01B2BF5D1E37C9907EF
:101380006BD5012110009943FFF784FA65E02A2B01
:1013900005D007D8252B68D00120282BE4D1FFF7F2
:1013A0007DFFC6E72F2B58D001205A2BDCD1FFF749
:1013B0002DFFBEE7E37C1C1C122B00D91224E4B2E3
:1013C00080212000FFF70AFF0028B2D021003F480B
:1013D000FFF7EAFEADE7E37C1D1C242B00D9242592
:1013E000EDB280212800FFF7F9FE0028A1D0237C70
:1013F0009B07A7D1677C002FA4D1607BFFF759FA28
:10140000002800D08037324E7770607BFFF75AFAA1
:10141000411C30001022103002F0B0FB0022B11845
:10142000097CD3B2002907D12022102B09D0F11852
:1014300001330A74DBB2F8E72229F5D00132102A11
:10144000EDD129003000C3E71000FFF711FA0228A0
:1014500029D0032824D0002802D1FFF777FD01E02E
:10146000FFF79CFEFFF7F0FD63E780210820FFF700
:10147000B5FE002800D15CE7164D607B2900FFF720
:10148000FFF902280FD003280AD00028E8D18023D2
:101490009B026B602B6808211BBA2B60280097E722
:1014A000FFF775FEDEE7FFF76BFEDBE7E37C002B63
:1014B00000D047E7D1E7C0463807002055534243E4
:1014C0002C0700205C0700203C0100206007002062
:1014D0004C0100203007002070B51B4A1478002C06
:1014E00016D00023194D13702B70194B194A187818
:1014F00019491A4B128800280CD0487B1968FFF74D
:10150000E9F92B78DBB2002B09D000221C002A70ED
:10151000200070BD487B1968FFF7E8F9F1E7022861
:101520000BD0032806D000280AD1FFF70FFDFFF7E4
:101530008BFDEDE7FFF72BFEF9E7FFF721FEF6E75E
:10154000FFF72CFEF3E7C0462E07002039010020EC
:101550002D0700205807002038070020280700200A
:10156000F7B5194C1E00237807001500002B01D198
:101570000020FEBD0023812023709F4200D17F38D0
:10158000331E00D1114B00930A002B00002101F003
:1015900021F9002802D101232370EAE7002E0ED1A1
:1015A0002378002BFCD00A4B1A78002AE0D10120C6
:1015B00008491B788A685840551B8D60D9E7054B50
:1015C0009A68551B9D60D4E738010020150F000074
:1015D000BC0C00203C01002010B5034B58887F2331
:1015E000184001F0ABF910BD680F0020F0B5164BA4
:1015F0001B78002B01D10020F0BD144B1B681B6829
:101600001A798242F7D9124C01262360DA789D7844
:1016100012022A4300259A189A4203D8002DEAD0D4
:101620002360E8E75F78042F0AD19F78874207D1CB
:10163000DF788F4204D1002D00D023600120DBE74A
:101640001D785B193500E7E77C0700208007002044
:1016500084070020094B1B681B68DA78997812020E
:101660000A439B1802788018984201D3002004E0B6
:101670004278042AFAD0052AF4D170478007002066
:1016800070B50500FFF7B2FF002801D1002070BD42
:101690000C4B1C682000FFF7DDFF041E0AD04279C6
:1016A00003791202C1781A43807800F077FF00288E
:1016B000F0D1EBE7044BAD001B685B68EB581B688F
:1016C0009847E4E7840700208007002070B50021D8
:1016D0000400FFF78BFF002802D10025280070BD11
:1016E0000D4BA2001B685B68D658F3689847010051
:1016F0002000FFF77BFF051EEFD0084B1C68200081
:10170000FFF7A8FF041E03D0807800F027FFF6E75C
:1017100073689847E2E7C0468007002084070020EE
:1017200010B501F063F910BD70B50B4D00242B7896
:10173000002B09D10023094A2B70138070BD2000B3
:10174000FFF7C4FF0134E4B2054B1B681B681B792B
:10175000A342F4D8EEE7C0467C07002072070020C1
:101760008007002010B50B4B00241B78002B09D1FB
:1017700010BD5B68A200D3581B69002B00D09847AE
:101780000134E4B2044B1B681A681279A242F0D803
:10179000EEE7C0467C07002080070020F8B5002354
:1017A000AA4CA38123616361237858B2002805DA2B
:1017B000E288002A02D100252800F8BD60211940E6
:1017C00020D11F22002800DBCCE0E588002D19D0B5
:1017D000134000D08CE06378062B0CD0082B00D18E
:1017E0007FE0002B0ED1022D12D12900984801F084
:1017F000B5F80125E0E76088050A022D3DD029D81B
:10180000012D34D01F2223781340012B00D159E140
:101810001F2223781340022BCDD18E4B00241B783E
:10182000002BC8D08C4B1B681A681279A242C2D90F
:101830005B68A200D558EB68984701002000FFF7CD
:10184000D5FE0028B7D0AB6898470028D1D1013425
:10185000E4B2E7E7032D27D00F2DD3D17F4B986853
:101860000028D5D0C17883780902194302E07B4B68
:101870001868017801F072F810E0784BC0B21A686D
:10188000527C8242C4D95B68C000C058C17883785A
:101890000902194301F062F8A3685D70E388A28928
:1018A0009A42A6D9A381A4E7C0B20328AAD801F01E
:1018B000A1FF15002F01040032010F21684A002307
:1018C00068485D00D65C451901336E80DDB2A942DF
:1018D000F7D849000231017089B2CBE70421624890
:1018E000C8E7012D94D129005A4801F037F863E781
:1018F000012B22D163780A2B84D1012D00D0E1E0A5
:10190000544B1B78002B00D1DCE0534B26791F6829
:101910003B681B79B34200D8D4E03000FFF766FE85
:10192000051E00D16EE77B68B600F358DB68984768
:101930004E4B012118701800D7E7022B00D061E749
:101940006378002B00D05DE7022D00D060E720799E
:1019500000F080FE464B29001880180000F0FEFFC2
:10196000013D29E7134053D160780138082800D998
:1019700048E701F035FF100047FF47FF47FF090028
:1019800047FF47FF47FF1E00E388002B00D03FE7DB
:10199000384B23612DE7E388002B00D038E76588BA
:1019A000012D00D034E70221294A13888B4313808C
:1019B00002E7E588002D00D02AE700F0C7FF0028E5
:1019C00000D11FE7254FA2783B685B7C9A4200DD7F
:1019D00018E7FFF7A9FEA3781E4A1370002B00D169
:1019E00007E7254A1C4E9B187A68DB00D318336042
:1019F00033681B681B79AB4200D8FAE60021280047
:101A0000FFF73EFE002800D1FCE60135EDB2EFE71E
:101A1000012B33D163780B2B00D0F3E6E388002B46
:101A200050D10C4B1B78002B4CD0267965883000A8
:101A3000FFF74CFE002800D1E4E6E9B23000FFF7E2
:101A40001FFE002800D0D4E6DCE6C046680F002068
:101A5000720700207C070020800700208C000020F7
:101A60009B010020700100209001002078070020D9
:101A700074070020D9150000FFFFFF1F022B00D0C4
:101A8000C0E66378012B11D0032B00D0BAE6E388BF
:101A9000002B00D0BCE66388002B00D0B8E620798C
:101AA00000F030FD207900F0DDFDCAE7E388002B6F
:101AB00000D0ADE66388002B00D0A9E6207900F0C5
:101AC00045FEBEE7154B1B78002B00D1A0E6144B5A
:101AD00025791E6833681B79AB4200D898E600214F
:101AE0002800FFF783FD002800D191E67368AA0063
:101AF000D658F368984701002800FFF777FD0028C3
:101B000000D185E6B3689847002800D071E67FE6EB
:101B10000621044AD3E60C21034AD0E67C070020C4
:101B20008007002094010020303C0000094B196818
:101B300000290BD1EFF31080074A002805D172B6B7
:101B4000BFF35F8F05490870012111701A680132D7
:101B50001A607047880700208C070020AB01002026
:101B6000084B1A68013A1A601B68002B09D1064B12
:101B70001B78002B05D00122044B1A70BFF35F8F36
:101B800062B67047880700208C070020AB01002058
:101B900010230249CA681A42FCD07047000800406E
:101BA000022270B500260A4D0A4C2B6813432B60A5
:101BB000A284FFF7EDFFAB68E3626B68A362A684C3
:101BC000FFF7E6FF2B6830009BB2A38470BDC046D0
:101BD000900700200008004070B5847802784578AE
:101BE000012040260540204080240849AD010B6AB1
:101BF000C001B3432B43A3430343032002400448E3
:101C00001202034013430B6270BDC046000800403F
:101C1000FFFCFFFF10B5027A438992069B059B0DDE
:101C2000120C1A43174B5A60C179827984880A438F
:101C3000418821430A4341780478C9010A431A6064
:101C4000042C0DD1027B018A92060A43C1890E48F9
:101C5000090401400A439A601A6814431C6010BDCD
:101C6000202CFCD1027B018A92060A43C1890648D6
:101C7000090401400A439A601968044A0A431A6039
:101C8000EDE7C046900700200000FF032404000099
:101C900010B5082806D801F099FD1405050C0E1A98
:101CA00007202300172010BD0223104A116A0B439E
:101CB00013620020F7E702230C4A91690B439361FA
:101CC000F7E70223094A118A0B431382F1E7022343
:101CD000064A918A0B439382EBE7FFF761FFE2E745
:101CE0000223034A11780B431370E2E70008004017
:101CF00044080040C2231E22F0B5344EDB003449B4
:101D0000B3604B68002593431A00042313434B60D0
:101D100002238BB005AC2370E8B22100013500F03E
:101D20001DF9252DF8D1002320226380A371E371D2
:101D30006370284B22701B689B0E3F2B00D1203B09
:101D4000237207230125002723730333E381224BEA
:101D500020006381FF3BA380204B2382FFF75AFFC3
:101D600001A8857007704570FFF736FF0620FFF762
:101D70008FFF00F03DF8062302AC210023702800FD
:101D8000F433636067706772257200F041F82800D1
:101D900000F08CF8FFF704FF1023F2681A42FCD021
:101DA00000250F4B07221D725D729D72DD720123AB
:101DB000210028006360227023726570657200F054
:101DC00027F8280000F072F80BB0F0BD00080040C2
:101DD0000040004124608000FF01000080BBFFFF45
:101DE00000040040014B5878C0097047000C0040C7
:101DF0000823054A91690B4393610123034A137039
:101E000011781942FCD1704700040040000C0040DA
:101E100070B50C784B782402060005000443002BB3
:101E200002D08023DB021C434B7A002B02D080239C
:101E30001B031C434B68012B12D95D1E1D4002225F
:101E4000002D06D01D02802335439B0207E001359B
:101E500052009A42FBD380232D0235435B031C437F
:101E60000B7A002B02D080239B031C43FFF7BAFFA1
:101E70000028FBD1FFF75AFE0A4B1E70FFF7B2FF96
:101E80000028FBD1084B9D601D00FFF7ABFF002829
:101E9000FBD180226B68520213401C436C60FFF739
:101EA0005FFE70BD080C0040000C004010B504003F
:101EB000FFF798FF0028FBD1FFF738FE074B1C7097
:101EC000FFF790FF0028FBD18023054A5B02516891
:101ED0000B435360FFF744FE10BDC046040C0040A6
:101EE000000C004010B50400FFF720FE054B064A29
:101EF0001C7080235188DB010B435380FFF730FEB9
:101F000010BDC046020C0040000C004010B504009B
:101F1000FFF70CFE0D4B0E4A1C700E4B0E4C5888F2
:101F200059880005114059805988000F2140598077
:101F300011008022D2015C881442FCD15A88000230
:101F40000A4002435A80FFF70BFE10BD020C00400E
:101F5000FFF0FFFF000C0040FFBFFFFF10B50C7843
:101F600024020443FFF7D2FF014BA4B25C8010BDF2
:101F7000000C0040D37830B5002B35D11478802C7C
:101F800003D0802324065B02234302255478AC430C
:101F900006D19478002C24D18024A40223434160EC
:101FA0005478013C012C01D8124C2340A0248DB25E
:101FB000E4052C431C438462D0240D0C24062C43DE
:101FC0001C438462D478002C0AD15B0303D5937838
:101FD000012B0CD181615378013B012B00D881602A
:101FE00030BDC024E402D9E741600023DEE741614F
:101FF000F1E7C046FFFFFBFF10B503000A004409EC
:10200000C1090020814202D10449E00140181F218A
:102010000B401E399940FFF7ADFF10BD0044004151
:10202000704710B5FFF766FEFFF7FAFFFFF7F8FFFE
:10203000FFF7F6FFFFF7F4FF10BD0000EFF310808D
:1020400072B6BFF35F8F0022024B1A7043425841B1
:102050007047C046AB0100200F2303405B00C0095E
:1020600018181423023843430148C0187047C0466B
:10207000B0070020F0B58D7985B06BB20E000F2748
:102080002800002B48DAFFF7E7FF2F400197038A6B
:10209000816802937688C3680400F618C660877C5E
:1020A0008E4225D08D1B4A4BADB29D4206D91800F9
:1020B000029901F019FD464B5D1AADB20021BB0734
:1020C00007D50299280001F025FC8BB259425941ED
:1020D000C9B20222A37C4900934319432B006268D2
:1020E000A174921901993B4800F0CEFE05B0F0BDF5
:1020F00002233800184005D062689F43A7749219E4
:102100000023EFE701239F432368A774002BEDD042
:102110002A0031009847E9E7FFF79EFF2F4002971A
:10212000038A04000193837C37885B0711D5C2685A
:1021300043689446019963448068039301F0EAFB85
:10214000029B0A00013B24499B015918039801F0A6
:1021500015FDE368FA18A368E2609A4200D9E360CB
:10216000B288BA4227D1E668B34224D09D1B184FEB
:10217000ADB20199BD4216D9380001F0B5FC7B1A09
:10218000019A9BB213489A4212D90423A27C1343AA
:10219000A374029B5A1E104B9201D218019B029904
:1021A00000F098FEA2E7280001F0B4FB6B1AE7E705
:1021B00062689219F3E70122A37C9343A374236816
:1021C000002B00D192E72A00E1680020A2E7C04678
:1021D000FF1F0000000E0020C00C0020052210B5DB
:1021E000054C064B200080211A7000F00FFE0021E4
:1021F000200000F018FE10BD000E0020AE070020E9
:1022000010B5074C0621200000F038FC0421200006
:1022100000F034FC0221200000F020FC10BDC0467C
:10222000000E002010B5054C0421200000F026FC13
:102230000221200000F012FC10BDC046000E00205C
:1022400037B50400FFF770FA8023226801AD93725E
:10225000280000F0D5FC0323290020006B7000F05B
:10226000D7FC1849200000F059FE174B022200212C
:10227000200000F011FC0022144B1100200000F09F
:102280000BFC134B01220021200000F005FC022270
:102290000021200000F028FC00222000110000F0A6
:1022A00023FC01220021200000F01EFC2168094AC5
:1022B0000B891A408023DB00134300220B81064B5D
:1022C0001A7037BD800F00204924000089260000C5
:1022D00011230000FFF3FFFFAE070020032210B51B
:1022E000074C084B084920001A7000F017FE002325
:1022F000064A19009268200000F0C6FD10BDC046D5
:10230000000E0020AE070020800F0020680F002084
:1023100010B589790C4B4AB2002A0BDA1B78012BD5
:1023200002D1FFF7DBFF10BD042BFCD1074800F002
:102330006DFDF8E71A78022A02D102321A70F2E72C
:10234000032AF0D1F2E7C046AE070020000E0020BD
:10235000F8B51D4D1D4E2B88B4891D4FE41AA4B24B
:10236000002C1BD11B4A11885B189BB21380F2888A
:102370009A4203D0184B1B78002B07D00422174B2E
:10238000174938001A7000F0C9FDF8BD7369002BB9
:1023900016D09847002813D02C80B4893F2C0FD931
:1023A000002240240C4B1A702B88B2680021D218EE
:1023B0003800230000F068FD2B88E4182C80E4E747
:1023C0000122054B1A70EFE7AA070020680F0020D2
:1023D000000E0020AC070020A8070020AE07002058
:1023E000800F002010B5FFF7BDF901F0BDF910BD59
:1023F000074B9A8C920605D4D021DA680A40D02A7D
:10240000FBD170471022D9681142FCD0F9E7C046D1
:102410000008004010B5FFF7EBFF094C0221200037
:1024200000F02CFB0421200000F018FB054A0621D7
:10243000200000F001FB0621200000F00FFB10BD82
:10244000000E00200122000070B5284E0C003378E9
:10245000002B06D0264B1B69002B00D09847002389
:1024600033702388082B02D0FFF7B8FE70BD214CD3
:102470001F4D23782B7063786B70E278A37812027B
:102480009B186B806279237912029B18AB80E279EA
:10249000A37912029B18EB80FFF780F90028E3D0A4
:1024A0002B787F2B0ED90021134B22001980134B60
:1024B00013481980022333703E3300F00BFDFFF701
:1024C00047FFD3E7EB88002B02D1FFF707FFCDE7EB
:1024D0000021094B22001980084B0948198001236B
:1024E00033703F3300F0F6FCC0E7C046AE07002073
:1024F000680F0020800F0020AC070020AA070020F2
:10250000000E002070B5040001000A4800F059FCDC
:102510002000FFF7A1FD0300827C0120024207D0CA
:102520001D6882439A74002D02D02200D968A84702
:1025300070BDC046000E002000207047024B1B6893
:10254000188A8004400D7047000E0020024B1B6863
:10255000188A80B27047C046000E0020F7B504000C
:10256000002701AD280000F04BFB2000FFF7CAFF59
:10257000094E29003000EF702C7000F049FB0F214C
:102580003A002140300000F09BFA3A003000210070
:1025900000F0F0FAF7BDC046000E0020F7B50600C7
:1025A00001AC20000F00150000F02AFB267000236C
:1025B000082D10D90123102D0DD90223202D0AD961
:1025C0000323402D07D90423802D04D980235B00E9
:1025D0009D4225D8FB3B30006370FFF73DFD032390
:1025E00005821F40012F29D1013B174D21002800F2
:1025F000E37000F00DFB041E1CD10F21134B0200F1
:102600003140280000F048FA22003100280000F094
:102610006BFA01223100280000F066FA01200AE07E
:1026200080239B009D4202D8FB3BFF3BD3E7084B36
:102630009D4201D90020FEBD0723CCE7022FD4D054
:10264000032FF7D10423D0E7000E002075200000EF
:10265000FF03000010B50100014800F0C8FB10BDE9
:10266000000E00200F2310B5034004000020052BAE
:1026700007D82100034800F0C9FB2000FFF742FF04
:10268000012010BD000E0020F8B52A4B1B78012B4D
:1026900041D1294F294D0E883C88AB89A21993421C
:1026A00001DA1E1BB6B2AB6832001819A41924490E
:1026B000A4B201F063FA3C80402E05D1214EEA8895
:1026C00033881B199A4210DC6B69AC81002B09D04E
:1026D0009847002806D10523164A00201370FFF7FB
:1026E000C1FFF8BDFFF7FAFDFBE7AB89A3420BD1B1
:1026F0006B69002BEFD098470028ECD033883A88DC
:102700009B18338000233B8040230D4A00210E4854
:1027100000F0E0FBE5E7022B02D1FFF719FEE0E74E
:10272000064B1B69002B00D098470023014A137009
:10273000D7E7C046AE070020AA070020680F002098
:10274000800F0020AC070020000E00200F2370B582
:10275000034006000024052B0ED8FFF77DFC050082
:102760003100064800F05FFBAB7C0134234203D00C
:10277000A343AB742B689847200070BD000E002067
:102780000F23F7B5034005000191052B02D9002462
:102790002000FEBDFFF760FC0122837C060013428F
:1027A000F5D10B4F2900380000F021FB041E06D0A4
:1027B0000122B37C1343B374019B3360E8E7290023
:1027C000380000F0EDFA041EE1D0019B9847DFE7E6
:1027D000000E0020F0B585B003921E0002000F230A
:1027E0001A4002900D000192052A03D900273800F3
:1027F00005B0F0BD0298FFF72DFF071EF6D1029835
:10280000FFF72AFC0400FFF719FC0123A27C1A42FF
:1028100007D00028EAD0454A1370BFF35F8F62B635
:10282000E5E71A43A274002804D0404A1370BFF3AE
:102830005F8F62B6039B022263600023E3600A9B02
:10284000A660236001231D406900A57C95430D43CC
:1028500004218D436946097AA57449B200293BDAFF
:10286000EDB2002E26D0324BB6B29E4206D91800E9
:10287000218A01F039F92E4B5E1AB6B2AB0707D5A3
:10288000218A300001F046F889B248424841C7B277
:102890000120022338404100A07C98430843A074E3
:1028A0003300039A0199234800F0EEFA434258415D
:1028B000C7B29CE7154202D09543A574F0E79D434B
:1028C000A5740A9B002B01D1012790E70021029AF1
:1028D00008000A9B9847F7E7002E22D0278A144D5C
:1028E000B6B23900AE4216D9280001F0FDF86B1AD5
:1028F0009BB21048039ABB4209D20423A27C134323
:10290000A374019B5A1E0C4B9201D2183B000199F3
:1029100000F0E0FACAE7300000F0FCFF761AB3B22C
:10292000E7E7A27C9A43A274CBE7C046AB01002044
:10293000FF1F0000000E0020C00C00208022024B70
:1029400010431B6898727047000E0020024B1B68F2
:10295000987A4006400E7047000E0020014B9860A8
:1029600099817047680F002070B50125194C04212A
:10297000226820001389AB431381174A00F05CF8EA
:10298000164A0021200000F057F82900144A2000C0
:1029900000F052F8134A0221200000F04DF8042103
:1029A000200000F05BF80021200000F057F829001B
:1029B000200000F053F80221200000F04FF80A4AEE
:1029C0000621200000F038F80621200000F046F82B
:1029D00070BDC046000E002025220000E523000047
:1029E00041220000152400000122000073B5FFF70A
:1029F00025FB01AC0600200000F09CFC00230B4DE1
:102A000022000B492800A37000F09CFC280000F075
:102A10009DFAFFF7EDFCFFF7A7FF002E05D001227E
:102A2000044B1A70BFF35F8F62B673BD000E0020B7
:102A300000500041AB0100200B002E339B0010B56D
:102A40001A50AA22044C52004900835A095B0B43D6
:102A50008352002010BDC0463E3C0000064B49009A
:102A6000CB5AAB21026849009383425A1A4342521F
:102A700002680020138370473E3C0000054B49006C
:102A8000CA5AAB214900435A93434352036800207A
:102A90009A8270473E3C000010B58C00A418343474
:102AA000A40004194018593004496360FF300378CA
:102AB0008A5C13430370002010BDC0464C3C0000EC
:102AC0008B009B18343310B59B000400C318002002
:102AD000641858605934034BFF349A5C237893434D
:102AE000237010BD4C3C00000F2370B50B40C41880
:102AF00061341F4EFF342578B65C35432570002ABB
:102B00000FD10268002B03D1FF320333937221E00F
:102B10005B01D21849B2FF3202230029F6DB012300
:102B2000F4E7012A0ED10268002B02D1FF320C33E8
:102B3000ECE75B01D21849B2FF3208230029E5DB3C
:102B40000423E3E7022A07D102685B01D3181022AD
:102B5000FF339A72002070BD032AFBD102685B012B
:102B6000D21849B2FF3240230029CFDB2023CDE722
:102B70004C3C00000F2370B50B40C4181F4D61344E
:102B8000FF34AE5C2578B5432570002A0FD102686A
:102B9000002B03D1FF320333537221E05B01D218C3
:102BA00049B2FF3202230029F6DB0123F4E7012AB0
:102BB0000ED10268002B02D1FF320C33ECE75B012F
:102BC000D21849B2FF3208230029E5DB0423E3E7EA
:102BD000022A07D102685B01D3181022FF335A7210
:102BE000002070BD032AFBD102685B01D21849B2F4
:102BF000FF3240230029CFDB2023CDE74C3C0000EF
:102C000000230370437083700133C370704700006A
:102C10000F23F0B504000D78C8782B406DB204285E
:102C200060D8226800F0D2FD030849879D0000208B
:102C300008335B01D054F0BD5E019219FF32557824
:102C40001C206D07F7D1702557782F42F3D10B3830
:102C50005070226808335B01D2182F3050712268FF
:102C6000D31880221A718A784B4B002A1BD08020FF
:102C70009A19546800060443546054692043506113
:102C800007254A789B195868444C2A40120720406F
:102C90001043586049785A692940090722400A437D
:102CA0005A610020C7E798194268520052084260F2
:102CB0004269520052084261E2E758011218FF329D
:102CC000002D27DA702657781C203742B3D156786A
:102CD0000430304350701800226808304001121848
:102CE000802010710724ED0F5B002B4A5B19487898
:102CF0001B01D3185A682040284C00072240024389
:102D00005A608878002842D08022596812060A4307
:102D10005A60C6E756781C20760700D08BE75678B5
:102D20001A383043507018002268083040011218D9
:102D300040205071D6E758011218FF32002D08DAF2
:102D4000702657781C20374200D074E7567814302C
:102D5000BFE756781C20760700D06CE75678193804
:102D6000DFE758011218FF32002D08DA7026577875
:102D70001C20374200D05EE756782430A9E7567809
:102D80001C20760700D056E756781838C9E75A68ED
:102D9000520052085A604EE7C00F0020FFFFFF8F1D
:102DA0000F230B40026808335B0149B2D05C002955
:102DB00005DA4006400F431E9841C0B270474007F5
:102DC000F8E70F230B40026808335B0149B2D218C1
:102DD000002906DA802111710268D3180222DA7103
:102DE0007047402151710268D3180122F7E70F2381
:102DF0000B40006808335B01C31849B29879002979
:102E000002DA8006C00F7047C006FBE70F230B40B5
:102E1000006808335B0149B2C3182022002900DB97
:102E200010225A7170470F2330B50B4002685C01C5
:102E30001219FF3249B2D579002912DA20210D4248
:102E40000ED05171026849181219FF32147A0C42DF
:102E500006D01172026808335B01D31802221A717E
:102E600030BD10210D42FBD0517102684918121972
:102E7000FF32147A0C42F3D01172026808335B01FE
:102E8000D3180122EBE7000070B50C000568083488
:102E90006401655D1C266D066D0F14D04D010B4954
:102EA0009B0449190D000A614A69094900260A4034
:102EB0006A616A69990C930B9B030B436B6103680E
:102EC0001C1980236371300070BDC046C00F002004
:102ED000FF3F00F070B50C00056808346401655DC3
:102EE0001C266D0713D00B4D49014A519B046918EC
:102EF0004A681D09084B002613402B434B604B6862
:102F00009B0B9B034B6003681C194023237130000B
:102F100070BDC046C00F0020FF3F00F0094B196094
:102F20005A6809491140802292020A435A605A683D
:102F3000920B92035A60402203680020FF335A71BB
:102F40007047C046C00F0020FF3F00F00223026818
:102F500011780B43137002689378022BFCD07047F2
:102F6000F0B5C44D85B02B681E6801933378DB093A
:102F700000D1C9E0308C80B200F0BCFD0300040039
:102F8000032008335B01F618F679F6B2064235D015
:102F90000121B94A94460A006746A2403F68974318
:102FA0003A0067463A60019A1268D218D071019AC5
:102FB0001219AE3212780A4220D0B04A0199147028
:102FC00009686001595CAE4B8907890F1B180129FC
:102FD00000D084E059688904890C5180596809013E
:102FE000890C91805A68920B92035A60019AA31C33
:102FF0001B01D3185B68A1491000984704210E42B9
:103000000DD00123A3409C4A106898431060220011
:10301000984B08321B6852011B689B18D971082213
:1030200016421DD00123A3409349086898430860C5
:103030002868A31801685B01CB18DA710319AE3355
:103040001B789B070CD58E4B62019B181F22DB89D6
:103050008A4913404B702301C3180C709B6A984730
:10306000102216421FD00123A340834908689843C9
:10307000230008602868083301685B01CB18DA7107
:103080000319AE331B785B070DD57C4A7C4B61017D
:103090005B1814705B6800211B019B0C538023019B
:1030A000C318DB6A9847202216425ED00123A34052
:1030B000714908689843230008602868083301684C
:1030C0005B01CB18DA710319AE331B781B074CD5A3
:1030D0006A490C7024010419236B984745E059682C
:1030E000684F0901890C518088B259688904890C9C
:1030F0009180596839405960002800D076E75B68B4
:103100009B049B0C538071E7348CA2B20292002A7C
:103110002DD1AB238027019A5B000199D25A023B43
:10312000B68BCB5AB6B213403340029C01937F005A
:10313000554B6200D35A334202D02A6812689383F7
:10314000019A13420ED05149062C04D14C4B1B89D5
:103150001B093B400B6023002A682E339B009B58C1
:10316000100098470134072CE2D105B0F0BD019D55
:103170005935FF35029A01211A41DCB20A4200D1C9
:10318000CEE01A00083251017118C81D0390C879A9
:10319000297A2F78C0B201403940602738421CD0CC
:1031A0005A01B6184022FF36307A10420FD03272E0
:1031B000C03A1443364A947160221142D5D0019A24
:1031C0001B01D318E0331B683149100085E720222A
:1031D000307A1042F0D03272ECE71027384216D025
:1031E000039A1770019AD2186132FF3212783A426C
:1031F000BBD0234A59015218526825499204920CB7
:103200000A80019A1B01D318DC331B68DDE7032712
:1032100038423FD002205A01B618FF36357A0542AF
:1032200015D0802530726D4219482C438471144C9E
:10323000A218103252689204920C42808A0700D180
:1032400093E70D33019A1B01D3185B68BCE7012596
:10325000307A2842F2D00E4835728471084CA41896
:1032600062689204920C028062681201920C828061
:10327000E4E7C04678080020880800208C08002079
:10328000C00F0020FF3F00F03E3C00007C08002003
:10329000800800200C27384242D05D017619FF36A5
:1032A000307A84460820674607421FD030720226D3
:1032B0001E484019857E354202D0857EB54385760D
:1032C0008020404204431A485201847101980068EA
:1032D0008218D279920700D547E70C22114200D11B
:1032E00043E7019A1B01D318D8336CE7307A844640
:1032F000042067460742F0D0307202260B4840197E
:10330000857A354202D0857AB543857208485201E4
:103310008471019800688218D279D207DDD524E73C
:1033200001330135082B00D024E71EE7C00F002031
:103330008008002000220123027043708270C37055
:10334000704700000023F0B585B0019204006B4A7D
:103350000D0013606A4A2160106020226949062727
:10336000C86903AE0243CA6101223100182073709C
:10337000B270F3703770FEF73FFE310019203770DE
:10338000FEF73AFE019B02AA9B78110038001370E9
:10339000FEF7E4FD3800FEF7A5FD01222B7813436C
:1033A0002B70AB78DB07FCD40321574BDA788A43C8
:1033B000110002220A430C21DA70DA788A431100E4
:1033C00008220A431F21DA70504A13685B0B0B4036
:1033D0008B4200D10523288D4D4E0B409B01304080
:1033E00003432B8513689B0C0B401F2B00D1023B22
:1033F0001F20298D034081430B4307212B85136830
:10340000DB0D0B408B4200D103232A8D0B40414939
:103410001B030A407F2113432B85019B3E481A78EA
:103420002B78D2010B4013432B70019B7E395A78C5
:103430002B780A40033192008B4313432B70019B7E
:103440006862DB78012B50D12268083113898B43E5
:10345000138180220021520000F099FB22000021FC
:10346000231D243202C39342FCD121000022A43147
:103470001A605A609A60DA6010338B42F8D11A7081
:1034800023002100A5331A7000220133AE311A70D7
:103490001A7201338B42FAD1230022000021B83383
:1034A000D43202C39342FCD1210000225531FF31B6
:1034B0001A605A609A60DA6010339942F8D1AA23F0
:1034C0005B00E2520233E25223000022593361349E
:1034D000FF33FF341A701A7201339C42FAD18022F2
:1034E00000200E4B1A6005B0F0BD002BB1D10C25A9
:1034F00022681389AB4319431181AAE78808002089
:103500007808002000040040005000412460800042
:103510003FF8FFFFFF8FFFFFC00F002000E100E03A
:10352000FEE700002148224970B5884204D00023FC
:10353000204CCA18A24232D300211F4B1F4A93428B
:1035400031D3FF211E4B1F4A8B43936002220C256F
:10355000082430261C4B1D485A62C378FC398B4323
:103560001343C370C378AB432343C370184B987B9A
:10357000B0430600202030439873987BA84304434F
:103580009C73987B884302439A738023114A516845
:103590000B43536000F0CEFA00F01EF8FEE7C5586A
:1035A00004331560C5E702C3C9E7C046703C00009C
:1035B00000000020AC010020AC010020C010002061
:1035C0000000000000ED00E0FC70004100500041F0
:1035D0000048004100400041F7B501204D494E4BE5
:1035E0000A7800AF82430A704C490A7882430A7015
:1035F0008022D2059A609A618022D2011168180057
:103600004B1C42D1464A1300117DC907FCD5454CDD
:1036100045482168056807267D600D003540012D6D
:1036200050D0B143063E0E4351680D003F49294337
:103630005160118B0D002021FF310D4315833C4D4E
:10364000D5613C4D15800A0039491D7DED07FCD53B
:103650001D8B15431D83384DD9611D801D7DED07E0
:10366000FCD526607C680460188B02431A83334AB9
:10367000D9611A801A7DD207FCD5BFF34F8F304A2B
:10368000304BDA60BFF34F8FFEE7C9B2002919D182
:103690002D4B2E4A1B78DB07DB0F0ED08023DB057A
:1036A000116043618023DB011A6882F30888254A90
:1036B0009360274B1B68184704E0146825498C4227
:1036C00021D113600122244B1A70BFF35F8F62B6C1
:1036D000FEF7A7FCFEF724F81E2211494B6893431E
:1036E0001A00022313434B60FCF714FD1B4B1B789D
:1036F000002B01D0FCF7C8FD194B1B78002BF5D02F
:10370000FDF7EAFEF2E71160164901390029FCD104
:10371000C4E7C0465E440041004400415F440041AC
:103720000040004100408000044080008000040010
:103730000020400005A5FFFF44A5FFFF06A5FFFFF1
:103740000400FA0500ED00E038040040FC7F002092
:103750000440000035817307AB010020920800206F
:103760009308002048E8010010B5094B1B78002B96
:103770000BD0084B1B78002B07D0FEF7DFFE802212
:10378000054BD205810501D55A6110BD9A61FCE750
:103790009308002092080020004400410120014BC2
:1037A00018707047930800200022014B1A70704770
:1037B000930800200120014B1870704792080020E8
:1037C0000022014B1A7070479208002002B4714623
:1037D00049084900095C49008E4402BC7047C04654
:1037E00003B47146490840004900095E49008E440F
:1037F00003BC704703B47146490840004900095AA8
:1038000049008E4403BC7047002243088B4274D3A6
:1038100003098B425FD3030A8B4244D3030B8B42D1
:1038200028D3030C8B420DD3FF22090212BA030CDA
:103830008B4202D31212090265D0030B8B4219D3BB
:1038400000E0090AC30B8B4201D3CB03C01A5241DB
:10385000830B8B4201D38B03C01A5241430B8B4223
:1038600001D34B03C01A5241030B8B4201D30B030C
:10387000C01A5241C30A8B4201D3CB02C01A524133
:10388000830A8B4201D38B02C01A5241430A8B42F6
:1038900001D34B02C01A5241030A8B4201D30B02DF
:1038A000C01A5241CDD2C3098B4201D3CB01C01AF9
:1038B000524183098B4201D38B01C01A5241430903
:1038C0008B4201D34B01C01A524103098B4201D3F1
:1038D0000B01C01A5241C3088B4201D3CB00C01A5E
:1038E000524183088B4201D38B00C01A52414308D6
:1038F0008B4201D34B00C01A5241411A00D20146FB
:10390000524110467047FFE701B5002000F0F0F883
:1039100002BDC0460029F7D076E7704703460B4347
:103920007FD4002243088B4274D303098B425FD3B8
:10393000030A8B4244D3030B8B4228D3030C8B42E4
:103940000DD3FF22090212BA030C8B4202D31212CA
:10395000090265D0030B8B4219D300E0090AC30B9F
:103960008B4201D3CB03C01A5241830B8B4201D34C
:103970008B03C01A5241430B8B4201D34B03C01A35
:103980005241030B8B4201D30B03C01A5241C30AAD
:103990008B4201D3CB02C01A5241830A8B4201D31E
:1039A0008B02C01A5241430A8B4201D34B02C01A08
:1039B0005241030A8B4201D30B02C01A5241CDD2AD
:1039C000C3098B4201D3CB01C01A524183098B42F8
:1039D00001D38B01C01A524143098B4201D34B01E1
:1039E000C01A524103098B4201D30B01C01A524144
:1039F000C3088B4201D3CB00C01A524183088B42CB
:103A000001D38B00C01A524143088B4201D34B00B3
:103A1000C01A5241411A00D2014652411046704725
:103A20005DE0CA0F00D04942031000D3404253402A
:103A300000229C4603098B422DD3030A8B4212D3EA
:103A4000FC22890112BA030A8B420CD3890192111C
:103A50008B4208D3890192118B4204D389013AD059
:103A6000921100E08909C3098B4201D3CB01C01A2E
:103A7000524183098B4201D38B01C01A5241430941
:103A80008B4201D34B01C01A524103098B4201D32F
:103A90000B01C01A5241C3088B4201D3CB00C01A9C
:103AA000524183088B4201D38B00C01A5241D9D2B4
:103AB00043088B4201D34B00C01A5241411A00D235
:103AC0000146634652415B10104601D34042002B31
:103AD00000D54942704763465B1000D3404201B5B0
:103AE000002000F005F802BD0029F8D016E7704765
:103AF0007047C046414208401C2101231B049842E4
:103B000001D3000C10391B0A984201D3000A08396E
:103B10001B09984201D30009043902A2105C401A23
:103B20007047C0461B1C1D1D1E1E1E1E1F1F1F1F73
:103B30001F1F1F1F70B500260C4D0D4C641BA410D9
:103B4000A64209D1002600F083F80A4D0A4C641BF6
:103B5000A410A64205D170BDB300EB5898470136BA
:103B6000EEE7B300EB5898470136F2E75C3C000003
:103B70005C3C00005C3C0000603C0000002310B591
:103B80009A4200D110BDCC5CC4540133F8E7030065
:103B90008218934200D1704719700133F9E7322E31
:103BA00030205B41726475696E6F3A58595A5D00F6
:103BB00076002000446563203133203230313700F5
:103BC00031383A31323A313200580A0D00590A0D73
:103BD000005A00230A0D003E00EB3C906D6B646FB1
:103BE000736673000002040100021000E401F80192
:103BF00000E401E0010000000000000000000029D6
:103C000078563412424F4F544C4F4144455200466F
:103C100041543132202020224F6E2D43686970209C
:103C20005669727475616C204D656D6F72792200F2
:103C30003837363432373833393032360000040002
:103C4000080070008000010000010002030C1060F9
:103C5000F8B5C046F8BC08BC9E467047DD000000C1
:103C6000F8B5C046F8BC08BC9E467047B5000000D9
:103C70007A01424F4F544C4F4144455200080000D6
:103C80000000000000000000000000000000000034
:103C900000004146004C004100530048000F002640
:103CA0002E00420049004E0000000000000000000D
:103CB0000000464C41534820202042494E0000005D
:103CC000000000000000000020084E12020000C0AA
:103CD00003000000D109000021090000790900005B
:103CE00035090000000000001D0C00003D09000027
:103CF00031090000350900002D0B000004010020EF
:103D00009800002000000000A00000201801002002
:103D100009026200030100800A080B00020202018E
:103D20000009040000010202010005240010010442
:103D3000240202052406000105240103010705836E
:103D40000340001009040100020A00000007058476
:103D500002400000070505024000000904020002BD
:103D600008065002070581024000000705020240D4
:103D7000000000001201000200000040501D106110
:103D8000000101020301000064000020780000200F
:103D900024010020B90F0000610F0000DD100000B9
:103DA0000F0F0000000000000101000055534253B6
:103DB00000000000000000000000000000000302FE
:103DC0001F000000424F4F544C445220000000009E
:103DD000000000000000000000000000312E303024
:103DE00000030000000000000000000000000000D0
:103DF00000000000000000000000000000000000C3
:103E00000403090445697465636800456974656362
:0C3E10006820526F626F746963730001D8
:00000001FF
